:100000006F10003F00000000C40D0000C80D00008C
:1000100000000000000000000000000000000000E0
:1000200000000000000000000000000000000000D0
:10003000CA0D000000000000C01300000000000016
:10004000C2130000C4130000C6130000C813000050
:10005000CA130000CC130000CE130000D013000020
:10006000D2130000D4130000D6130000D8130000F0
:10007000DA13000028120000DE130000E013000075
:10008000E2130000E4130000E6130000E813000090
:10009000EA130000EC130000EE1300000000000063
:1000A000511126C022C206C4828282441244A24058
:1000B000310182802A86014593F6150091C232955E
:1000C00085810606F5F9828000000000634E050276
:1000D00063C305042E86AA857D5515C285466378BF
:1000E000B6006356C00006068606E36CB6FE014500
:1000F00063E4C500918D558D85820582F5FA828075
:100100008682C93F2E8582823305A04063D70500D1
:10011000B305B040C1B7B305B0408682653F330533
:10012000A0408282868263C70500634905005D376F
:100130002E858282B305B040E35B05FE3305A04007
:10014000513F3305B040828200003D432A876373EC
:10015000C3029377F700BDEFADE5937606FF3D8AC6
:10016000BA960CC34CC30CC74CC74107E36BD7FE10
:1001700011E28280B306C3408A0697020000969679
:100180006780A6002307B700A306B7002306B700C1
:10019000A305B7002305B700A304B7002304B700E5
:1001A000A303B7002303B700A302B7002302B700DD
:1001B000A301B7002301B700A300B7002300B700D5
:1001C000828093F5F50F93968500D58D9396050162
:1001D000D58D61B793962700970200009696868288
:1001E000E78086FA9680C1171D8F3E96E374C3F8A8
:1001F000A5B781476393C7008280B386F50083C6A5
:1002000006003307F50085072300D700E5B78147CF
:100210006393B70082803307F5002300070085074A
:10022000C5BF8347F502611122C2BD8DA307B50288
:10023000B785379E26C06146130305019385059057
:100240008942AA869C42910613D78700E207D98F7C
:10025000D846931397005D833367770083A3C60165
:10026000B3747700139413003D8C8A04258CC0CEA0
:10027000B3C4E70033E47700F98F06048E073347F1
:100280007700258CB98FC0C623AEF6FEE31CD3FAE7
:100290009377360089CB638457027D165DF2124452
:1002A0008244210182801C41584154455CC11C4557
:1002B00014C55CC5B367B600B98F1CC1F9BF1C413A
:1002C00018451CC518C15C4158455CC558C1F1B7FB
:1002D0005C4D860513971700FD83CD8F93952700FE
:1002E000BE9505838A0558CD9D8D130705021C41D7
:1002F0001105AE97232EF5FEB3B5B700E319A7FE9F
:100300008280EFF2FFD9AE8301478145930200025C
:10031000B387E3009443B307E6009C43B697338367
:10032000B700B3B6D700B337F300B385D700B30730
:10033000E50023A067001107E31C57FC513FB5B34C
:10034000EFF21FD60147930740FB7D539302000253
:10035000B386E5009442B303E500B697B3B6D70081
:100360009A963303E60003230300110733836740A3
:10037000B3B7670023A06300B387F64013D3F741F8
:10038000E31857FC93852700A13705B3EFF25FD13F
:10039000130181F92EC032C62A8413060004814558
:1003A000281036C85D3382463C103E87938606028D
:1003B000814436C43246939624000243B296944256
:1003C000BA82814336C21246032503008146814525
:1003D0003ED216D03ACE1ECC1ACAEF10C068825256
:1003E000E243524383A6020072471103338676002C
:1003F000B336D600B695A2462A963335A60023A07A
:10040000C200B303B50091029257E39E66FAC2465A
:100410002320770285041107E39E96F822871303B1
:100420000402814583A20700885313066002B38447
:10043000B200B3B25400814681453AC61AC416C20E
:100440003EC0EF10406232479242824722432695D7
:10045000B3349500969508C31107A6959107E31349
:10046000E3FC2285B5351301810681B1EFF25FC34C
:10047000A1462A86213F15B99386050418419C415F
:1004800091051105B98FF18F3D8F232EE5FE03A74E
:10049000C5FFB98F23AEF5FEE392D5FE8280EFF261
:1004A0003FC02A8493040502AA87CD45984391074B
:1004B0002E9723AEE7FEB335B700E399F4FE093D6E
:1004C0000145B557FD5618401104BA9733B7E700F8
:1004D000232EF4FE5D8DB307D70093D6F741E39446
:1004E00084FE3335A0007D15C9B6EFF27FBB130142
:1004F00081FC938705023ECCB78754129387B7E1FE
:100500002A8432CE2E8302C63ED083270300825334
:10051000A2843ECA8D67138747E6938747E63AC4AD
:100520003EC822C2814202C00147931727003AD237
:10053000724752468146BA97884381451AD816D6E3
:100540001ED4EF1040529247A253B25294438247B6
:100550004253B697B3B6D700AA9733B5A700B6955E
:100560003307B5003AC0125719EBBE851E853AD441
:100570003ED289364253B25222579257AA83BE9234
:10058000B3B7F2003ED4C2471E86814688438145F8
:100590001ADA3AD816D61ED2EF10E04CB252A25751
:1005A00042571695B3325500BE95AE9292535253B0
:1005B00001C7924723AEA7FE9247050791073EC2A7
:1005C000C24791073EC8A147E311F7F682471103DE
:1005D000BE92B3B5F200B2479697B3B257005CCC67
:1005E000E2473387B2003AC6E39167F2A246930727
:1005F000040281420146184011049106BA9233B7B1
:10060000E200329703A6C6FF3386C240B3B2C200EF
:10061000232EC4FEB302574013D6F241E39D87FC5C
:1006200032470144BA92B30250403EC2A2471686F6
:1006300081468843814516C0EF10E042A2479440AE
:1006400091049107338786003EC49247B336D700A2
:100650002A973335A700AE9623AEE4FE3304D500C7
:100660008242E39497FC1301810381B4EFF25FA30C
:1006700013060002EF10A0460DBCEFF27FA2130696
:100680000002EF10C04515B4EFF29FA193070508D3
:10069000930405022A8471112686AA853E853EC0F0
:1006A0008D312686A28526856139130604069305B9
:1006B00004042285B9311306040632859305040427
:1006C000413193050408130504064D33A6852285A0
:1006D000713B228693050406130504041D3193051E
:1006E000040622862E85A939930504082E85BD3B74
:1006F000A6852685A53B2686930504082285893193
:100700000D668546A2852685130606E6413102461A
:10071000A6852685FD36110149BAEFF27F981301AF
:1007200081FA2A842EC093040504B285280836C2B3
:10073000353F930500082285D93C85471306000202
:100740003CD01CC02C082685EF1060399246130758
:10075000F00F0146824593573740AE9783C7070095
:1007600081CA9305770039456367B50893F7870F0A
:1007700093757700B3D7B740858BB307F0403D8EB4
:10078000A685228536CA3AC83EC6FD312285ED3D92
:10079000130600022C082818EF1060341306040614
:1007A00013030408B28532851AC432C2C13112461D
:1007B0002C1832856539A68526854D39A285130505
:1007C00004026D312243228622859A851AC28D3E0B
:1007D000124322859A855939B2474247D2463E860E
:1007E0007D17FD57E318F7F6A685228571311301B1
:1007F00081056FF09F8B930587F01D45E36AB5F681
:1008000093F7F70793E70704A5B7EFF27F89130182
:1008100081F52AC0280036C2093730101304D00FE2
:10082000B284A146B285A81095361D47634887005B
:100830001307B00E33578740058B01C7A685A81054
:1008400035317D147D57B010E31DE4FCB2852800DE
:1008500031392800A931AA8402452C00393D92473C
:1008600091E3814426851301810A6FF01F84EFF222
:100870003F830D668146130606E4413F19C1EF1020
:1008800020256FF09F82EFF2BF8113850182C14561
:10089000EFF0FF97138401821C5854588145138749
:1008A00017001CC0B337F700B697138501825CD8D8
:1008B00054C018D8EFF0FF96C147A30CF4026FF0B4
:1008C000CFFEEFF2EFFD71112A84AE8409E60145F7
:1008D00011016FF08FFD8347040341471D8F637340
:1008E000E60032878146834704036315D702BA972F
:1008F00093F7F70FBA94198E2308F4024147E39750
:10090000E7FC8145228532C0EFF0BF910246230803
:1009100004026DBFB697A297B385D40083C50500C6
:1009200003C507008506A98D2380B7006DBFEFF2D0
:100930002FF71301C1FB2EC0B28481451306A0031B
:100940002A841305A100EFF05F80B7776D6193876C
:1009500047B03EC28567938737869305200313050A
:1009600021012314F100EFF09F8A0247214613056D
:10097000A100BA85EF10A0168DCC930700021306D4
:100980000002A68513055101230AF100EF1020157E
:100990001306000422859305400332C0EFF03F8721
:1009A00002464C002285313F0145130141046FF09E
:1009B000CFEF230A010013060002E9BF4167930746
:1009C00006FF3D17636FF708EFF28FED5111B28705
:1009D000A304C10021822305C1003336C0000506EF
:1009E000AE842304C1002C0009062A843EC0A3055E
:1009F0000100C13D03470403824722978346070055
:100A000093C6F6012300D7000347F400134707F805
:100A1000A307E40013F707FF2697814522853EC20E
:100A20003AC0EFF01F8026854146A285EF10200BCB
:100A30000247C1049247E392E4FE13F6F70019CA95
:100A40008145228532C0EFF0CFFD0246A285268582
:100A5000EFF02FFAC1472308F402014531016FF08E
:100A6000CFE47D558280EFF2AFE39387018283C7A5
:100A700087031301C1FBBDE38D67938787E3984329
:100A8000DC4301462C0008083EC63AC44D35938429
:100A90000182C1473EC0EF00606A2AC211464C0085
:100AA000080805358247FD17C207C183E5F713061D
:100AB000000393850182080811379C408145138506
:100AC000018293C7F7FF9CD8DC4093C7F7FFDCD8BF
:100AD000EFF02FF54D3B8547238CF40213014104C1
:100AE0006FF0AFDCEFF2CFDB61112AC02E84A53F9F
:100AF0000245137704FFAA872A976395E7023D888A
:100B000011CC8145138501823EC0EFF08FF1824701
:100B10002286938501823E85EFF0AFEDAD33210152
:100B20006FF0AFD88145138501823AC23EC0EFF025
:100B30004FEF82474146938501823E85EF00307A30
:100B400093070501124755BFEFF28FD5293F0145A5
:100B50006FF0AFD5EFF2CFD4130141FC2EC28D65FB
:100B60002A84B284938545EA0146280036C0C13301
:100B70009247130600022800BE85A133A6851306FE
:100B8000000228003D3B8246130600042800B6857B
:100B90000D3B13060002A28528000D351301C10389
:100BA0006FF0AFD0EFF2CFCF930405022A84930504
:100BB00000022685053FA6852285553913060002C9
:100BC000A28513050404EF0090716FF00FCEEFF2D1
:100BD0002FCD0146A93B6FF04FCDEFF26FCC130143
:100BE00081F0AE8432C02C1913060004C13B13847B
:100BF0000402228593050002F53502468D65938532
:100C000045EA48012D33A2851306000248015539F3
:100C10002C191306000448016D3113060002A28549
:100C20004801693BA2852685993182473419A685FA
:100C3000138607024800393FA2854810EFF01FA332
:100C40008245C800EFF09FA24C00C810EFF01FA231
:100C5000D010CC004810EFF05F89C8009305000267
:100C6000EFF0EFDA0D66130646E84C10C800EFF01F
:100C7000DF87CC002285EFF05FA001451301810FD3
:100C80006FF0AFC2EFF2CFC11301C1E92E84B2847D
:100C9000CC00130600041D33D4002686A28548002C
:100CA000553D26864C0048018146EFF01FA70D6692
:100CB0008146130606E493050402C801EFF0FFA580
:100CC000C147A28548103EC0EFF05F9A13060004AA
:100CD0004C014802EF00B060C801EFF0FF9A4C01F0
:100CE000C811EFF0AFF84C11C811EFF02FF84C100D
:100CF000C811EFF0AFF7CC1185460A862E85EFF0CC
:100D0000EFE84C104812EFF06FF64C1250022E85AF
:100D1000EFF00FE34C122E85EFF04FF54C12D0118F
:100D20002E85EFF0EFE1C811EFF06FF72A8448123B
:100D3000EFF0EFF61345F5FF418D130141166FF00B
:100D4000CFB6EFF2EFB5130141FC2EC22A84B6856F
:100D5000280032C0BA84A53D0246924711C57D5590
:100D60001301C1036FF06FB4BE852800993E65F989
:100D70002686A285280095353335A0003305A0408E
:100D8000C5B7EFF2EFB1130141FC2EC22A84B6853C
:100D9000280032C0BA84253D0246924711C57D55D0
:100DA0001301C1036FF06FB0BE852800EFF07FB173
:100DB0007DF52686A2852800F1353335A000330560
:100DC000A040F9BF7300203001A0B7F700E0D8437E
:100DD000799BD8C398431367170098C383A70186EC
:100DE000850723A0F18673002030EFF26FABAE844D
:100DF000834505002A8437350000711113058517D6
:100E0000EF00705B85471387F4FFB736000063EB94
:100E1000E700373500001305C512EF00D059110166
:100E20006FF0AFA83307F400834507001385C61899
:100E30003EC0EF00505882478507F1B7EFF24FA64A
:100E400079240545EF00100C854537050010EF00AB
:100E500090180145EF009008EF0090300567B7E764
:100E600000E037D5080023A0E710130505A0EF0028
:100E7000903237350000130545EEEF00D05337357B
:100E800000001305C5EEEF001053373500001305C1
:100E900005EFEF0050523704002083250401373559
:100EA0000000130585EFEF0010518325040137354D
:100EB00000001305C5F1EF001050B7F7FF1F83D5F1
:100EC000077E37350000130505F4EF00D04EEF0024
:100ED0003039AA8537350000130545F6EF00B04DCF
:100EE0000945EF00407F6FF04F9CEFF26F9B1301BD
:100EF000C1F5A937B92C31268139B73700001385E0
:100F0000C7F8EF00504B13840186C80004405939DC
:100F10000C4037350000130585FA858DEF00B04988
:100F200037350000130585FCEF00F048B7340000AA
:100F3000373500009385040013054502EF00B047E4
:100F400003230400B73300009386C303D8101306AD
:100F500020029385040048001AC0E53302430C4088
:100F60003735000013054504B3856540EF00B044F4
:100F7000373500001305C505EF00F04303230400D7
:100F8000B7330000D800938504009386C30313068B
:100F9000200248001AC0F53393840186024398402A
:100FA00037340000330767403AC029C137350000A5
:100FB00013054509EF0030401305C40CEF00B03FA6
:100FC0009305000448001535024737350000130526
:100FD000C50DBA85EF00303E98408966938606714C
:100FE00036979440E3FBE6F00100E5BF373500009B
:100FF0001305850FEF00303C37350000130545130E
:10100000EF00703B93050002C800C5333735000080
:1010100013058514EF00303A93050004C810F1332E
:101020001305C40CEF003039930500044800753BEC
:101030000247373500001305C515BA8561BFB717DC
:1010400002409843B706FFFC1367170098C3D843C4
:10105000758FD8C39843B706F7FEFD16758F98C3F2
:101060009843B706FCFFFD16758F98C3D4434177AC
:101070007D17F98ED4C3B7069F0094C7B7260240E8
:101080009042719A90C290421366160090C2D44367
:10109000D4C3D443758FD8C3D843B7060001D8C38F
:1010A0009843558F98C3984393166700E3DD06FE77
:1010B000D843B7160240719BD8C3D84313672700A3
:1010C000D8C32147DC42B18BE39EE7FE8280EFE28A
:1010D0003FFD371702405C43370400209146B18B37
:1010E000130404016385D700A1466383D704B7378F
:1010F0006E01938707601CC0B7160240DC420840AF
:10110000918313F7F700B707002093870700BA977A
:1011100083C50700DC4293F5F50F93F707083357B3
:10112000B50081E7EFE01FFB2A8718C06FE0FFF7EB
:101130005C43B777DC02938707C075BF938701884C
:10114000984311C723A0070003A5C187828001002F
:10115000F5B7EFE2FFF42111854513050020A92D15
:1011600011657923372401401305044001266146A7
:1011700081450A85EFE07FFDB7070E003EC6856713
:10118000938707803EC88A85854713050440230A54
:10119000F1000126854513050440A1269567938734
:1011A00007B00100FD17F5FF372501401305054085
:1011B00037240140912E930404402685992E75FD15
:1011C0001305044037240140892E1304044022856E
:1011D000912E75FD9567938707B00100FD17F5FF08
:1011E00037250140054693050022130505401126C9
:1011F000B7E700E03707002023A0E71061016FE0A8
:10120000DFEAEFE2FFE9B707002083C54701372493
:10121000014091460546130504402D2685451305DA
:10122000044029266FE07FE8797136C6B7060020B2
:101230003AC403C746012ECA3EC216D6B72701409C
:101240001AD41ED222D026CE2ACC32C891459386FB
:10125000460193870740630AB7142146630BC7060C
:101260000D456319A714F8472380B6002392E18641
:1012700083C60600B727014003A507411396160051
:10128000B305D6001D473317B7001347F7FF1146C4
:101290003316B600698F518F23A8E74003A7474351
:1012A0000254B252019BD98E23AAD74203A787408A
:1012B000B70650002253558F23A4E7409253F244BF
:1012C0006245D2454246B246224792474561730085
:1012D0002030F047FC472394C186138501870C41D9
:1012E0005841998393D2F501858B8605AE971313E8
:1012F000170033E3620033B7B7001A971CC158C117
:1013000013858187834505001303F0031386018746
:10131000850593F5F50F6368B3002300B5008D478D
:101320002380F600B1B783C54188938441882300A8
:101330000500FD4303A5C18701449382C18726C0F0
:101340009314F70113D3170033E36400B344F3009D
:10135000858889C806051373130085051A9593F5CA
:10136000F50F05441313E7018983FD44B367F300C8
:10137000098363FEB4001CC258C219C023A0A20096
:10138000824705472380070023A0E18849BFFD135A
:1013900093F3F30FE39603FA1CC258C249D0824775
:1013A00023A0A2002380B7009DBFF8472393E186C6
:1013B000A147BDB72380C60065BD01A001A001A063
:1013C00001A001A001A001A001A001A001A001A015
:1013D00001A001A001A001A001A001A001A001A005
:1013E00001A001A001A001A001A001A001A001A0F5
:1013F00097F1FF1F9381014B138101F61725000020
:10140000130545E397F5FF1F9385C5BF13868180BC
:1014100063FAC5008322050023A05500110591053C
:10142000E3EAC5FE13850181938541896377B500A1
:10143000232005001105E36DB5FE930200087390AB
:1014400002308D427390428097F2FFFF938282BBFD
:1014500093E2320073905230EFF07FBE97020000AB
:101460009382E2A87390123473002030B7270140B2
:1014700093870740631EF500EFE29FC28545130581
:1014800000208D2E814513050020AD266FE0FFC1A1
:1014900082805C413707F1FF1307F7EF7D8FDC4156
:1014A0009441A207D58FD98F5CC11C4537F7F1FF56
:1014B0001307D77FD4457D8F9C49D58F94458606E9
:1014C000D58FD98F1CC55C55370710FF7D177D8FD1
:1014D00083C74501FD1793F7F70FD207D98F5CD566
:1014E00082801C4589C593E717001CC58280F99B43
:1014F000EDBF5C4193F5F50F01C6DD8D4CC18280D7
:1015000093C5F5FFFD8DDDBF1C4593E787001CC526
:10151000828008450D81058982801C4593E747003C
:101520001CC5828008450981058982801C4591C5BA
:1015300037075000D98F1CC582803707B0FF7D1751
:10154000F98FD5BFA54763F8B704138765FF9317D5
:1015500017008322C500BA971D433313F3001343CA
:10156000F3FF33735300B397F600B3E767005CC52E
:10157000994763E3C7047D16931726003E96585992
:10158000FD47B397C70093C7F7FFF98FB395C50021
:10159000DD8D4CD982809397150003230501AE970A
:1015A0001D473317F7001347F7FF33776700B397EB
:1015B000F6005D8F18C96DBFB14763E2C7026516BB
:1015C000931726003E961859FD47B397C70093C757
:1015D000F7FFF98FB395C500DD8D0CD982804D16CC
:1015E0001317260054553A96FD47B397C70093C783
:1015F000F7FFF58FB395C500DD8D4CD582809C45F6
:10160000611122C226C013F7070113F3F70001C7C7
:10161000D8413363E30003D605001377F60F29C7DB
:101620008323050001471304800293048004854648
:10163000B395E600B376B6006392D5029312270005
:10164000BD46B396560093C6F6FFB3F37600B312C9
:101650005300B3E37200639787064CC90507A146A0
:10166000E317D7FC232075001307F00F6378C70436
:1016700083234500A1461304800293048004054798
:10168000B312D700337756006394E2021397260013
:101690000117BD45B395E50093C5F5FFB3F375009C
:1016A0003317E300B363770063928702232A550060
:1016B00085064147E395E6FC2322750012448244E7
:1016C00021018280E39C97F80CC949BFE39297FE01
:1016D00023285500F1BF23A4A1888280B7160240B9
:1016E000DC423707C1FF7D17F98F5D8DC8C282804C
:1016F000B7160240DC4241771307F77FF98F5D8D03
:10170000C8C28280371702405C5309C593E71700AF
:101710005CD38280F99BEDBFEFE29F9837170240C0
:101720005C4391462A84B18B6385D700A146638FC1
:10173000D706B7376E01938707601CC0B716024003
:10174000DC42918313F7F700B70700209387C702A5
:10175000BA9783C50700DC42184093F5F50F93F75D
:1017600007083355B70081E73A85EFE0BF9648C0D8
:1017700008C448C4B7170240DC43AD83FD8B13D7C0
:1017800037008A07F18BD98F93F637010D476373C2
:10179000D700D1173707002013078701BA9783C5F1
:1017A0000700EFE03F9308C86FE03F905C43B777D6
:1017B000DC02938707C051B799C5371702401C4F09
:1017C0005D8D08CF8280B7170240984F1345F5FF13
:1017D000798D88CF828099C5371702405C4F5D8D27
:1017E00048CF8280B7170240D84F1345F5FF798D57
:1017F000C8CF828099C5371702405C475D8D48C7C6
:101800008280B7170240D8471345F5FF798DC8C7C6
:101810008280EFE2FF8883560501F577FD17F58F8B
:1018200083D6650003D7C5002111D58F2318F50095
:101830008356C500FD779387379FF58F83D6450084
:101840002A842EC0D58F83D68500D58F83D6A50058
:10185000D58F2316F50083574501C207C18393F73F
:10186000F7CF5D8F231AE50048007D35B74701406B
:101870009387078082456315F406C2470357C40067
:10188000139517003E9542070E0541873E958C4102
:10189000635A07048605EFE0FF83930540062AC0DC
:1018A000EFE05F83824793144500930540063E8531
:1018B000EFE01F858357C400C207C18763D60702C4
:1018C0000E059305400613052503EFE0BF801D8933
:1018D000C98CC204C1802314940061016FE0EFFC45
:1018E000B24769BF8A0545BF120593054006130537
:1018F0002503EFE02FFE3D89E1BF81C98357C50075
:101900000967D98F2316F50082800357C500F97740
:10191000FD17F98FC5BF93F5F51F2312B50082801F
:10192000035505006D8D3335A0008280EFE24FF73F
:10193000B707002003A50701B7157A009385052096
:10194000EFE04FF91375F50F2387A1889317550022
:10195000898F8A073E950E052396A1886FE0EFF4E4
:10196000EFE20FF4E137B7F700E0D843799BD8C333
:1019700003D7C18898CB23A4070098431367870037
:1019800098C398431367270098C3984313671700B9
:1019900098C36FE08FF1EFE2AFF02A841165111167
:1019A000854513050502093D930700022310F10048
:1019B000371501408D473EC28A85E1471305054032
:1019C0003EC4EFF0DFC322C637440140B70708002A
:1019D0006C00130504803ECA02C8231C0100153D9B
:1019E000854513050480113F71016FE00FECEFE2B4
:1019F0002FEB7111AE840144635DC402B74701400F
:101A0000138707803A859305000432C0113FB7471A
:101A1000014013870780024675D53387840083050C
:101A20000700138507800504C205C181ED35024614
:101A3000E1B7328511016FE04FE737070020130748
:101A4000C7031C43938641893E956369D5009386FD
:101A500001E663E5A60008C33E858280FD57EDBF21
:101A600073251030828021112AC236C006CAAA8688
:101A700022C826C6328732C48147014501433386D6
:101A80006600937317003304F50093D2F6010583C3
:101A9000B334660086076385030033858400328390
:101AA0008606B3E7570061FFAA8789C52245EFE0A4
:101AB0006FE0AA97024711C71245BA85EFE08FDFA2
:101AC000AA97D2404244B2441A85BE856101828001
:101AD0005111194506C451220545EF10A035B3C771
:101AE000A5008D8B3307C50081E78D4763E9C702E9
:101AF000AA876371E50C83C6050085078505A38F5A
:101B0000D7FEE3EAE7FE828083C6050085078505E8
:101B1000A38FD7FEE3EAE7FE0244110182809376A9
:101B20003500AA8791CA83C6050085078505A38F5E
:101B3000D7FE93F63700FDB79376C7FF138606FEF0
:101B400063F5C706711122C0C04903A3050083A332
:101B50008500C0CB804D23A0670003A3450080CF44
:101B6000C04D23A2670083A2C50003A3050193858E
:101B70004502C0CF03A4C5FF23A4770023A65700C6
:101B800023A867009387470223AE87FEE3EEC7FAD8
:101B9000E3F2D7F890419107910523AEC7FECDBF80
:101BA00090419107910523AEC7FEE3EBD7FEE3E436
:101BB000E7F4828082801301C1FD3ED02EC832CA74
:101BC00036CC3ACE97E7FF1F9387C74D22C4804398
:101BD00026C206C6AA8409C41C4C99E322859D2A04
:101BE0000C4414082686228536C02129B24022449E
:101BF0009244130141028280FD4763F6B700D94742
:101C00001CC17D5582807C41411122C406C62E86AE
:101C10002A8491C713972500BA97984319EB228518
:101C200032C08D28AA85228522440246B240410155
:101C300025A8854601456308D700FD566319D700DE
:101C4000D9471CC00545B2402244410182802E85FF
:101C500023A0070002970145FDB797E7FF1F938771
:101C60006744AA85884349BF511122C22A842E8520
:101C7000B28523A8018806C4EF108019FD576317A9
:101C8000F500938701899C4391C31CC0A240124474
:101C9000310182806F104016511122C206C42A847D
:101CA0002316B5002317C5002320050023220500B5
:101CB000232405002322050623280500232A0500E6
:101CC000232C0500214681451305C505EFE0EFC72C
:101CD00097170000938747A15CD097170000938760
:101CE000A7A31CD4971700009387E7A75CD4971786
:101CF00000009387A7AA00D01CD8A240124431014B
:101D0000828097150000938545E089AA41111386CA
:101D1000F5FF22C41314160032940A0432940E0400
:101D20002EC09305440726C206C6492AAA8409CDB7
:101D30008247232005003105232CF5FE88C41306B5
:101D400084068145EFE06FC0B2402244268592446C
:101D5000410182801C4DBDE3511106C422C2970788
:101D60000000938747FA1CD597E7FF1F9387C73377
:101D70009C43232405042326050423280504631417
:101D8000F50085471CCD2A841D2848C022850528DA
:101D900008C422852D2048C4484001469145ED3DA8
:101DA00008440546A545CD3D48440946C945ED359D
:101DB00085471CCCA24012443101828082804111AF
:101DC00097E7FF1F9387472E22C4804326C206C68B
:101DD0001C4CAA8499E32285B53F9307840480476D
:101DE000D8437D1763560700984331CF9C43C5BF46
:101DF0008316C400B1E6C177850723220406232099
:101E0000040023220400232404005CC423280400CB
:101E1000232A0400232C0400214681451305C40510
:101E2000EFE0AFB2232A0402232C0402232404048B
:101E3000232604042285B240224492444101828038
:101E40001304840679BF914526853EC0C13582477B
:101E500088C349FDB1479CC00144E9BF111122CAA2
:101E600006CC26C8AA862E8613048504814719E469
:101E7000E2405244C2443E8571018280044458408D
:101E80007D17635407000040DDB703D5C4008545C6
:101E900063F3A5020395E400FD55630EB500368596
:101EA000A6853EC63AC436C232C00296B247224721
:101EB00092460246C98F93848406D9B7411126C23F
:101EC00093843500F19806C622C4A104B14763F992
:101ED000F404B14463E8B4042AC0EF00905D1387B2
:101EE000018114438247368431E4138741811843CA
:101EF00009EB3E8581453EC0EF00207C23AAA180EE
:101F000082473E85A6853EC0EF00207B7D578247F5
:101F10006316E506314798C33E85EF00B05929A006
:101F2000E3DA04FAB1471CC10145B24022449244AD
:101F3000410182801840058F634F07022D4663766A
:101F4000E60018C03A9404C031A05840639386025A
:101F500023A8E1803E85EF00F0551305B400130778
:101F600044006199B307E540E9D33E94098F18C056
:101F70006DBFD8C2C5B7A2864040BDB713043500B7
:101F80007198E30285FCB305A4403E853EC0352729
:101F90007D578247E319E5FAB5BF1C46FD171CC6FD
:101FA00063DA0700184E63C5E700A9476394F5009C
:101FB0006F00E07E1C422E851387170018C2238015
:101FC000B7008280311122C626C406C8AA872E8790
:101FD0003284B304D60063149400014531A88345CC
:101FE00004003A863E853AC23EC0453FFD56050490
:101FF00082471247E311D5FEC2403244A244510148
:102000008280130181F722C1A6DE9307F10106C386
:102010002AC032C22E8493F487FF19C5184D09E7F0
:1020200036C6EFF03FD3B246171700001307C718A4
:102030006317E40E8247C0430357C400218B630239
:1020400007101848630F070E13070002A38CE40063
:102050001307000323AA0400238DE40036CA1247A5
:10206000130650028346070099C2639AC60E924730
:102070003303F7406301030202459A863E86A28538
:102080003AC81AC68137FD56630ED520D44832436C
:1020900042479A96D4C883460700638506201303F7
:1020A00017007D5723A0040023A60400D8C023A452
:1020B0000400A381040423AC0404834503001546F3
:1020C00017150000130545131AC2EF00F03C124328
:1020D00094401307130051E513F6060109C61306D1
:1020E0000002A381C40413F6860009C61306B002D9
:1020F000A381C404834503001306A0026380C508BE
:10210000D4441A8781452545034607001303170069
:10211000130606FD6379C50AB5C9D4C485A8171787
:1021200000001307670B6315E4008247804729B757
:102130001717000013074706E310E4F08247C04773
:10214000E5BD0245A28536C6B927B246E30E05EEC7
:102150007D559A400A44F654130181088280050790
:1021600011B717160000130626093306C5400545AA
:102170003315C500C98E94C03A8381B75246930582
:10218000460010422ECA63490602D0C40346070027
:102190009306E0026313D606034617009306A002D7
:1021A000631ED602D246090713864600944232CAFD
:1021B00063C40602D4C091A03306C04093E6260053
:1021C000D0C494C0E1B71397260036970607B3062C
:1021D000C70085451A870DBFFD56E9BF050723A235
:1021E0000400814581462545034607001303170077
:1021F000130606FD637CC506D5FD834507000D4625
:10220000171500001305C5FF3AC2EF00F02812476A
:1022100011CD971600009386A6FE158D9306000437
:10222000B396A60088400507558D88C083450700F2
:10223000930717001946171500001305A5FC3EC2A9
:10224000238CB400EF00502535C517E7FFFF1307B7
:1022500067DB05EB9440524793F606108DC21107D9
:102260003ACAD848A2473E97D8C8D5BB139726008C
:1022700036970607B306C70085451A87B5B7210705
:10228000C5B702455808970600009386E6D3228614
:10229000A68597000000E70000002AC4A2477D57EA
:1022A000E391E7FC0357C40013770704E31207EA3E
:1022B000C84845B502455808970600009386C6D021
:1022C0002286A685052AD1BF011126CA3283B6848B
:1022D0009045944922CC06CE2A84AE8763D3C600AB
:1022E000B2862320D30003C6370401C68506232007
:1022F000D300944393F6060291C683260300890611
:102300002320D30083A207009383970193F26200F6
:1023100063830206904383C6370413760602B336FE
:10232000D00041EA13863704A68522851AC43EC22E
:102330003AC00297FD566308D506924722431145DD
:10234000944303260300CC47998A014302476397CD
:10235000A6003383C5406353030001439447904B69
:102360006354D600918E36938142E9076312530677
:1023700001451DA88502D44703260300918EE3DBA7
:10238000D2F885461E86A68522851AC83EC616C482
:102390001EC23AC00297FD5602479243A242B2477C
:1023A0004243E319D5FC7D55F2406244D2440561B5
:1023B0008280B385D70013050003A381A50483C5DC
:1023C0005704138616003E968906A301B60499BFEA
:1023D00085463E86A685228516C61AC43EC23AC0E8
:1023E0000297FD56E301D5FCB24222439247850293
:1023F0000247ADBF130141FD22D206D426D032C21E
:1024000003C6850136C42AC0930690062E849382A3
:102410003504630DD60263E2C606930680056303A6
:10242000D61A63EDC600630C062293063004630DD2
:10243000D60A930424042301C404C1A093063006E1
:102440006304D60A93064006E315D6FE14400843FB
:1024500013F60608930545005DC214410CC363D80A
:1024600006001307D002B306D040A301E4041716F8
:1024700000001306A6D9294765A893060007630F35
:10248000D61663E5C6029306E0066306D61A9306DF
:10249000F006E310D6FA0C40144313F30508138535
:1024A00046006306030608C3944285A893065007B6
:1024B000E303D6FE930680076306D614930630071F
:1024C000E319D6F614431386460010C38442D04164
:1024D00081452685EF00407C19C1058D48C05840D4
:1024E00018C8A301040475A8144393042404138694
:1024F000460010C398422301E4040547D5B713F6FC
:10250000060414410CC321DEC206C18689BF93F5BF
:10251000050408C3D1D983D606001307F006630467
:10252000E61017160000130666CE2947A30104041F
:102530004C400CC463C5050008406D9908C099E281
:1025400096848DCD9684BA85368516CC32CA3AC823
:1025500036C6EFD0FFBA52464247B246329583455F
:102560000500FD1436852380B400BA85EFD09FB6F0
:10257000B24642475246E24263FDE60AA146631E66
:10258000D7001840058B11CB544018486347D7003B
:1025900013070003A38FE4FEFD14B38292402328A7
:1025A00054002247924602457008A285EFF0DFD121
:1025B0007D57631AE50A7D55A250125482541301C7
:1025C000C1028280A382C50417160000130606C448
:1025D0000C40084313F3050814411105630D030271
:1025E00008C313F7150001C793E505020CC0414766
:1025F00095FE0C4093F5F5FD0CC00DBF944193E69C
:10260000060294C193068007A302D40417160000A3
:10261000130606C175BF13F3050408C3E30303FCE7
:10262000C206C1827DBF17160000130626BE2147D1
:10263000F5BDAA8609BF90411443CC49137306081F
:10264000138546006306030008C398420CC301A823
:1026500008C313760604984275DA2310B7002328BE
:10266000040096843DBF144892450245A247268641
:1026700082977D57E301E5F41840098B1DEB724703
:102680004844E35BE5F23A8505BF92450245A2471F
:1026900085461A863AC81AC68297FD56E30DD5F0CC
:1026A00042473243050754447246918EE34FD7FCAC
:1026B000F9B7014713039401FDB7511122C22A84CF
:1026C0002E8523A8018806C4EFF02FB7FD576317A6
:1026D000F500938701899C4391C31CC0A24012441A
:1026E00031018280511122C22E848395E50006C4F7
:1026F0008D2D634905007C48AA977CC8A2401244EE
:10270000310182808357C4007D777D17F98F2316AE
:10271000F400EDB783D7C500311122C626C406C820
:1027200093F70710AA842E843283B68291CB8395C7
:10273000E50036C232C0894601461529924202435D
:102740008357C4007D777D17F98F2316F400831516
:10275000E4003244C2402685A24496861A8651017E
:1027600021A2511122C22E848395E50006C40121C5
:10277000FD570357C400631BF500FD77FD17F98F64
:102780002316F400A2401244310182808567D98F5C
:102790002316F40068C8FDB78395E50039A431110C
:1027A00022C626C406C8AA87AE84328419C5184D2D
:1027B00009E72AC0EFF00FDA824717170000130766
:1027C000A79F631BE406C043184C18C40357C400FA
:1027D000218B59C3184849C31848084093F6F40F91
:1027E00093F4F40F198D5848634AE5003E85A2859D
:1027F00036C23EC0092E824792462DE51844050593
:102800007D1718C418401306170010C02300D70006
:1028100058486309A7000357C400058B01CB29471B
:102820006396E400A2853E85F92C0DEDC24032444A
:102830002685A24451018280171700001307C7990B
:102840006314E400804749B7171700001307C794C3
:10285000E31CE4F6C0478DBF3E85A2853EC0252817
:1028600082473DD9FD54D9B7511122C22A842E8501
:10287000B285368623A8018806C4EFF04F97FD572E
:102880006317F500938701899C4391C31CC0A24044
:10289000124431018280411197E7FF1F938787809F
:1028A00026C2844322C406C6AA862E8481C89C4CB4
:1028B00091E72AC02685EFF0EFC9824697170000FE
:1028C0009387878F631AF402C0400317C4009317DD
:1028D0000701C18313F6870035EE13F607010DEEED
:1028E000A5479CC2136707042316E4007D55B24038
:1028F0002244924441018280971700009387C78D3C
:102900006314F4008044D1B7971700009387C788F9
:10291000E31DF4FAC04455BF918B9DC74C5899C92B
:10292000930744046386F500368536C069268246DF
:10293000232A04028357C4002322040093F7B7FD1F
:102940002316F4001C481CC08357C40093E787007B
:102950002316F4001C4881EF8357C400130700209E
:1029600093F707286385E700A2853685412C8357B6
:10297000C40013F7170005C75C4823240400B307FD
:10298000F0401CCC1C480145BDF38317C40013F76D
:10299000070831DF93E707042316F40081BF898B12
:1029A000014791E3584818C4F1BF511122C22A844B
:1029B0002E8523A8018806C42521FD576317F5003D
:1029C000938701899C4391C31CC0A24012443101EA
:1029D000828083D6C500311122C606C826C413F7EB
:1029E0008600AA872E8469EFD841634BE000B84186
:1029F0006348E0000145C2403244A2445101828054
:102A000058546DDB84431396360123A00700635EA0
:102A1000060670480357C400118B19C75840198E19
:102A2000585819C33840198E58540C5081463E8569
:102A30003EC002977D578356C4008247631DE50060
:102A4000904375476368C70637074020050733572B
:102A5000C700058B25C318482322040018C013970C
:102A60003601635807007D576314E500984311E36E
:102A700068C84C5884C3BDDD130744046384E50073
:102A80003E85152C232A0402B5B70C5001463E851D
:102A900085463EC002977D572A868247E31CE5F6AD
:102AA00098432DDBF5466305D700D9466313D70459
:102AB00084C389B793E606042316D4007D5525BF49
:102AC00098490DDB84418D8A98C1998C014691E229
:102AD000D04910C4E35090F2032384020C503A868C
:102AE0003E85A6863AC23EC002938247124763499A
:102AF000A0008357C40093E707042316F4007DBFAA
:102B00002A97898CC1BF9C49ADC3411122C406C616
:102B10002A8419C51C4D89E72EC0EFF0AFA382456A
:102B20009707000093874769639CF5004C408397A3
:102B3000C5009DC722852244B24041016FF07FE964
:102B400097070000938747696394F5000C44C5B765
:102B50009707000093874764E39BF5FC4C44C1BF93
:102B6000B2402244014541018280014582805111D9
:102B700022C22A842E85B285368623A8018806C4FF
:102B8000712CFD576317F500938701899C4391C30E
:102B90001CC0A240124431018280AE878395E500BB
:102BA0005971A6D286D6A2D4B28463DC050083D73D
:102BB000C70023A0060093F7070885EB93070040A2
:102BC0003DA01304F1006198228636C23EC0C122A6
:102BD00082479246E34D05FC5840BD67F98F7977EF
:102BE000BA9793B717009CC2D1BF93070004B650A1
:102BF00026549CC0014596546561828003D7C50068
:102C0000211122C806CA26C6098B2E8401CF93073C
:102C100074041CC01CC885475CC8D2404244B244FE
:102C20006101828034005000AA84853F92452AC009
:102C30002685EFF0AFA801ED8317C40013F7072036
:102C400069FFF19B93E727002316F400C9B717F734
:102C5000FFFF1307470B98D40357C40008C008C8E8
:102C6000136707082316E400124758C8224709CF04
:102C70008315E4002685892201C98357C400F19B8E
:102C800093E717002316F4008357C4000247B36488
:102C9000F7002316940051B793F5F50F2A966314A5
:102CA000C5000145828083470500E38DB7FE050519
:102CB000FDB782808280CDC583A7C5FF511122C296
:102CC00006C426C01384C5FF63D307003E94AA84BC
:102CD000CD3797D7FF1F9387E73D9C4389EF23228A
:102CE000040097D7FF1F23A7873C1244A2402685E4
:102CF00082443101C1B7637EF40014403307D4002D
:102D00006396E7009843DC43369718C05CC0D1BF98
:102D1000BA87D84319C3E37DE4FE94433386D700D2
:102D2000631F86001040B29694C33386D700E31E1B
:102D3000C7FA10435843B29694C3D8C37DB763759E
:102D4000C400B1479CC055B71040B306C400631619
:102D5000D70014435843B29614C058C0C0C371B7CB
:102D60008280511122C22A842E85B285368623A8FC
:102D7000018806C45528FD576317F500938701891C
:102D80009C4391C31CC0A240124431018280511166
:102D900022C22A842E85B28523A8018806C4B920C0
:102DA000FD576317F500938701899C4391C31CC0AD
:102DB000A240124431018280511122C22A842E8500
:102DC00023A8018806C43D28FD576317F5009387A3
:102DD00001899C4391C31CC0A240124431018280EE
:102DE0009307800523A8F1887D558280930780058D
:102DF00023A8F1887D5582809307800523A8F18858
:102E00007D5582809307800523A8F1880145828043
:102E10009307800523A8F1887D558280930780055C
:102E200023A8F1887D5582809307800523A8F18827
:102E30007D55828001A00000687964726F5052470E
:102E40000900000000000000000000000000000079
:102E50000000000000000000000000000000000072
:102E600041DB0100EDD3F55C1A631258D69CF7A242
:102E7000DEF9DE1400000000000000000000000089
:102E800000000010010F9C44E31106A447938568DD
:102E9000A71B0ED065BEF517D273ECCE3D9A307CE1
:102EA0001B4199030000000000000000000000002A
:102EB0000000000000000000000000000000000012
:102EC0000000000000000000000000000000000002
:102ED00000000000000000000000000000000000F2
:102EE000000000001B5B324A000000001B5B480032
:102EF0001B5B3F32356C0000506172743A201B5BE3
:102F000033383B353B31346D5743482043483332E7
:102F1000563030331B5B306D0D0A000053797374EB
:102F2000656D436C6B3A201B5B33383B353B31346A
:102F30006D256C75487A1B5B306D0D0A0000000032
:102F4000464C4153482073697A653A201B5B3338FD
:102F50003B353B31346D25754B421B5B306D0D0AA3
:102F6000000000004D495341205265676973746544
:102F7000723A201B5B33383B353B31346D256C781E
:102F80001B5B306D0D0A0D0A000000004372656185
:102F900074696E67206B657920706169722E202ECE
:102FA000202E20200A0D00004B6579207061697287
:102FB0002063726561746564212028546F6F6B20F3
:102FC000256C75290A0D00005369676E696E6720CC
:102FD00074686520666F6C6C6F77696E67206D65CD
:102FE00073736167652077697468207365637265C0
:102FF00074206B65792E202E202E20200A0D0000D3
:103000006C6962687964726F67656E2120576F72B0
:103010006B696E67206F6E20434833325630303311
:1030200021000000221B5B33383B353B3136366DC7
:1030300025731B5B306D220A0D0000004578616D21
:10304000706C65005369676E6564212028546F6F4A
:103050006B20256C756D73290A0D00004E6F77206B
:10306000766572696679696E67207369676E6174E7
:10307000757265207573696E672074686520707558
:10308000626C6963206B65792E202E202E200A0D3C
:10309000000000001B5B33383B353B396D536967DB
:1030A0006E617475726520646F6573206E6F742035
:1030B0007369676E2074686973206D6573736167E7
:1030C00065211B5B306D0A0D000000005369676EBF
:1030D0006174757265207761733A00005665726994
:1030E0006669636174696F6E20746F6F6B206D2504
:1030F0006C756D730A0D00001B5B33383B353B313B
:10310000306D4D65737361676520636F6E666972BC
:103110006D65642061757468656E74696320766995
:1031200061207369676E6174757265211B5B306D18
:103130000A0D00005075626C6963206B6579207719
:103140006173203A00000000536563726574206B60
:10315000657920776173203A000000005665726936
:103160006669636174696F6E20546F6F6B20256CA4
:10317000756D730A0D0000000A0D30781B5B333843
:103180003B353B3133366D253032580025303258CF
:10319000000000000000000000000000000000002F
:1031A000000000000000000000000000000000001F
:1031B000000000000000000000000000000000000F
:1031C00000000000000000000000000000000000FF
:1031D00000000000000000000000000000000000EF
:1031E00000000000000000000000000000000000DF
:1031F00000000000232D302B20000000686C4C00E4
:10320000656667454647000030313233343536371E
:1032100038394142434445460000000030313233E2
:103220003435363738396162636465660000000002
:103230000102030405060708010203040506070846
:10324000006CDC02040000000204060804080C10F4
:103250000810182010203040204060800102030434
:1032600005060708010203040506070834010020CB
:1032700000000000B4310000D4310000943100009F
:10328000000000000000000000000000000000003E
:10329000000000000000000000000000000000002E
:1032A000000000000000000000000000000000001E
:1032B000000000000000000000000000000000000E
:1032C00000000000000000000000000000000000FE
:0832D000400000204000002036
:00000001FF
